{
  "contractName": "Marketplace",
  "abi": [
    {
      "inputs": [
        {
          "internalType": "address",
          "name": "_tokenContract",
          "type": "address"
        }
      ],
      "stateMutability": "nonpayable",
      "type": "constructor"
    },
    {
      "anonymous": false,
      "inputs": [
        {
          "indexed": false,
          "internalType": "uint256",
          "name": "id",
          "type": "uint256"
        },
        {
          "indexed": false,
          "internalType": "address payable",
          "name": "seller",
          "type": "address"
        },
        {
          "indexed": false,
          "internalType": "uint256",
          "name": "price",
          "type": "uint256"
        }
      ],
      "name": "ItemCreated",
      "type": "event"
    },
    {
      "anonymous": false,
      "inputs": [
        {
          "indexed": false,
          "internalType": "uint256",
          "name": "id",
          "type": "uint256"
        },
        {
          "indexed": false,
          "internalType": "address payable",
          "name": "buyer",
          "type": "address"
        },
        {
          "indexed": false,
          "internalType": "uint256",
          "name": "price",
          "type": "uint256"
        }
      ],
      "name": "ItemSold",
      "type": "event"
    },
    {
      "inputs": [],
      "name": "itemCount",
      "outputs": [
        {
          "internalType": "uint256",
          "name": "",
          "type": "uint256"
        }
      ],
      "stateMutability": "view",
      "type": "function",
      "constant": true
    },
    {
      "inputs": [
        {
          "internalType": "uint256",
          "name": "",
          "type": "uint256"
        }
      ],
      "name": "items",
      "outputs": [
        {
          "internalType": "uint256",
          "name": "id",
          "type": "uint256"
        },
        {
          "internalType": "address payable",
          "name": "seller",
          "type": "address"
        },
        {
          "internalType": "uint256",
          "name": "price",
          "type": "uint256"
        },
        {
          "internalType": "bool",
          "name": "sold",
          "type": "bool"
        },
        {
          "internalType": "bool",
          "name": "canceled",
          "type": "bool"
        },
        {
          "internalType": "string",
          "name": "title",
          "type": "string"
        },
        {
          "internalType": "string",
          "name": "description",
          "type": "string"
        }
      ],
      "stateMutability": "view",
      "type": "function",
      "constant": true
    },
    {
      "inputs": [],
      "name": "tokenContract",
      "outputs": [
        {
          "internalType": "contract ERC20",
          "name": "",
          "type": "address"
        }
      ],
      "stateMutability": "view",
      "type": "function",
      "constant": true
    },
    {
      "inputs": [
        {
          "internalType": "string",
          "name": "_title",
          "type": "string"
        },
        {
          "internalType": "string",
          "name": "_description",
          "type": "string"
        },
        {
          "internalType": "uint256",
          "name": "_price",
          "type": "uint256"
        }
      ],
      "name": "createItem",
      "outputs": [],
      "stateMutability": "nonpayable",
      "type": "function"
    },
    {
      "inputs": [
        {
          "internalType": "uint256",
          "name": "_id",
          "type": "uint256"
        }
      ],
      "name": "buyItem",
      "outputs": [],
      "stateMutability": "nonpayable",
      "type": "function"
    },
    {
      "inputs": [
        {
          "internalType": "uint256",
          "name": "_id",
          "type": "uint256"
        }
      ],
      "name": "getItem",
      "outputs": [
        {
          "internalType": "uint256",
          "name": "",
          "type": "uint256"
        },
        {
          "internalType": "address",
          "name": "",
          "type": "address"
        },
        {
          "internalType": "uint256",
          "name": "",
          "type": "uint256"
        },
        {
          "internalType": "bool",
          "name": "",
          "type": "bool"
        },
        {
          "internalType": "bool",
          "name": "",
          "type": "bool"
        },
        {
          "internalType": "string",
          "name": "",
          "type": "string"
        },
        {
          "internalType": "string",
          "name": "",
          "type": "string"
        }
      ],
      "stateMutability": "view",
      "type": "function",
      "constant": true
    },
    {
      "inputs": [],
      "name": "getAllItems",
      "outputs": [
        {
          "components": [
            {
              "internalType": "uint256",
              "name": "id",
              "type": "uint256"
            },
            {
              "internalType": "address payable",
              "name": "seller",
              "type": "address"
            },
            {
              "internalType": "uint256",
              "name": "price",
              "type": "uint256"
            },
            {
              "internalType": "bool",
              "name": "sold",
              "type": "bool"
            },
            {
              "internalType": "bool",
              "name": "canceled",
              "type": "bool"
            },
            {
              "internalType": "string",
              "name": "title",
              "type": "string"
            },
            {
              "internalType": "string",
              "name": "description",
              "type": "string"
            }
          ],
          "internalType": "struct Marketplace.Item[]",
          "name": "",
          "type": "tuple[]"
        }
      ],
      "stateMutability": "view",
      "type": "function",
      "constant": true
    },
    {
      "inputs": [
        {
          "internalType": "uint256",
          "name": "_id",
          "type": "uint256"
        }
      ],
      "name": "cancelSale",
      "outputs": [],
      "stateMutability": "nonpayable",
      "type": "function"
    }
  ],
  "bytecode": "0x60806040523480156200001157600080fd5b5060405162002266380380620022668339818101604052810190620000379190620000e9565b80600260006101000a81548173ffffffffffffffffffffffffffffffffffffffff021916908373ffffffffffffffffffffffffffffffffffffffff160217905550506200011b565b600080fd5b600073ffffffffffffffffffffffffffffffffffffffff82169050919050565b6000620000b18262000084565b9050919050565b620000c381620000a4565b8114620000cf57600080fd5b50565b600081519050620000e381620000b8565b92915050565b6000602082840312156200010257620001016200007f565b5b60006200011284828501620000d2565b91505092915050565b61213b806200012b6000396000f3fe608060405234801561001057600080fd5b50600436106100885760003560e01c80636bfb0d011161005b5780636bfb0d011461011b578063bd94b00514610139578063bfb231d214610155578063e7fb74c71461018b57610088565b80633129e7731461008d5780634ba1d6aa146100c357806355a373d6146100e15780635fb6161c146100ff575b600080fd5b6100a760048036038101906100a2919061135a565b6101a7565b6040516100ba9796959493929190611482565b60405180910390f35b6100cb6103d4565b6040516100d891906116ed565b60405180910390f35b6100e9610666565b6040516100f6919061176e565b60405180910390f35b610119600480360381019061011491906118be565b61068c565b005b610123610858565b6040516101309190611949565b60405180910390f35b610153600480360381019061014e919061135a565b61085e565b005b61016f600480360381019061016a919061135a565b610c3f565b6040516101829796959493929190611973565b60405180910390f35b6101a560048036038101906101a0919061135a565b610dcb565b005b600080600080600060608060008060008a81526020019081526020016000206040518060e0016040529081600082015481526020016001820160009054906101000a900473ffffffffffffffffffffffffffffffffffffffff1673ffffffffffffffffffffffffffffffffffffffff1673ffffffffffffffffffffffffffffffffffffffff168152602001600282015481526020016003820160009054906101000a900460ff161515151581526020016003820160019054906101000a900460ff1615151515815260200160048201805461028190611a1f565b80601f01602080910402602001604051908101604052809291908181526020018280546102ad90611a1f565b80156102fa5780601f106102cf576101008083540402835291602001916102fa565b820191906000526020600020905b8154815290600101906020018083116102dd57829003601f168201915b5050505050815260200160058201805461031390611a1f565b80601f016020809104026020016040519081016040528092919081815260200182805461033f90611a1f565b801561038c5780601f106103615761010080835404028352916020019161038c565b820191906000526020600020905b81548152906001019060200180831161036f57829003601f168201915b5050505050815250509050806000015181602001518260400151836060015184608001518560a001518660c00151975097509750975097509750975050919395979092949650565b6060600060015467ffffffffffffffff8111156103f4576103f3611793565b5b60405190808252806020026020018201604052801561042d57816020015b61041a6112b9565b8152602001906001900390816104125790505b5090506000600190505b600154811161065e576000808281526020019081526020016000206040518060e0016040529081600082015481526020016001820160009054906101000a900473ffffffffffffffffffffffffffffffffffffffff1673ffffffffffffffffffffffffffffffffffffffff1673ffffffffffffffffffffffffffffffffffffffff168152602001600282015481526020016003820160009054906101000a900460ff161515151581526020016003820160019054906101000a900460ff1615151515815260200160048201805461050d90611a1f565b80601f016020809104026020016040519081016040528092919081815260200182805461053990611a1f565b80156105865780601f1061055b57610100808354040283529160200191610586565b820191906000526020600020905b81548152906001019060200180831161056957829003601f168201915b5050505050815260200160058201805461059f90611a1f565b80601f01602080910402602001604051908101604052809291908181526020018280546105cb90611a1f565b80156106185780601f106105ed57610100808354040283529160200191610618565b820191906000526020600020905b8154815290600101906020018083116105fb57829003601f168201915b5050505050815250508260018361062f9190611a7f565b815181106106405761063f611ab3565b5b6020026020010181905250808061065690611ae2565b915050610437565b508091505090565b600260009054906101000a900473ffffffffffffffffffffffffffffffffffffffff1681565b600081116106cf576040517f08c379a00000000000000000000000000000000000000000000000000000000081526004016106c690611b76565b60405180910390fd5b600160008154809291906106e290611ae2565b91905055506040518060e0016040528060015481526020013373ffffffffffffffffffffffffffffffffffffffff1681526020018281526020016000151581526020016000151581526020018481526020018381525060008060015481526020019081526020016000206000820151816000015560208201518160010160006101000a81548173ffffffffffffffffffffffffffffffffffffffff021916908373ffffffffffffffffffffffffffffffffffffffff1602179055506040820151816002015560608201518160030160006101000a81548160ff02191690831515021790555060808201518160030160016101000a81548160ff02191690831515021790555060a08201518160040190816107fc9190611d38565b5060c08201518160050190816108129190611d38565b509050507f9b8c4b5bf2f39369bee0a581bf2e28b1c1df1982925a012ff839ee598d142cdd600154338360405161084b93929190611e0a565b60405180910390a1505050565b60015481565b60008060008381526020019081526020016000206040518060e0016040529081600082015481526020016001820160009054906101000a900473ffffffffffffffffffffffffffffffffffffffff1673ffffffffffffffffffffffffffffffffffffffff1673ffffffffffffffffffffffffffffffffffffffff168152602001600282015481526020016003820160009054906101000a900460ff161515151581526020016003820160019054906101000a900460ff1615151515815260200160048201805461092d90611a1f565b80601f016020809104026020016040519081016040528092919081815260200182805461095990611a1f565b80156109a65780601f1061097b576101008083540402835291602001916109a6565b820191906000526020600020905b81548152906001019060200180831161098957829003601f168201915b505050505081526020016005820180546109bf90611a1f565b80601f01602080910402602001604051908101604052809291908181526020018280546109eb90611a1f565b8015610a385780601f10610a0d57610100808354040283529160200191610a38565b820191906000526020600020905b815481529060010190602001808311610a1b57829003601f168201915b5050505050815250509050806020015173ffffffffffffffffffffffffffffffffffffffff163373ffffffffffffffffffffffffffffffffffffffff1614610ab5576040517f08c379a0000000000000000000000000000000000000000000000000000000008152600401610aac90611e8d565b60405180910390fd5b600015158160600151151514610b00576040517f08c379a0000000000000000000000000000000000000000000000000000000008152600401610af790611ef9565b60405180910390fd5b60018160600190151590811515815250506001816080019015159081151581525050806000808481526020019081526020016000206000820151816000015560208201518160010160006101000a81548173ffffffffffffffffffffffffffffffffffffffff021916908373ffffffffffffffffffffffffffffffffffffffff1602179055506040820151816002015560608201518160030160006101000a81548160ff02191690831515021790555060808201518160030160016101000a81548160ff02191690831515021790555060a0820151816004019081610be59190611d38565b5060c0820151816005019081610bfb9190611d38565b509050507fa574c741071bb18f51fa88c17aeefec514bebf670ca22a3736fba6504ecbb76382600080604051610c3393929190611f54565b60405180910390a15050565b60006020528060005260406000206000915090508060000154908060010160009054906101000a900473ffffffffffffffffffffffffffffffffffffffff16908060020154908060030160009054906101000a900460ff16908060030160019054906101000a900460ff1690806004018054610cba90611a1f565b80601f0160208091040260200160405190810160405280929190818152602001828054610ce690611a1f565b8015610d335780601f10610d0857610100808354040283529160200191610d33565b820191906000526020600020905b815481529060010190602001808311610d1657829003601f168201915b505050505090806005018054610d4890611a1f565b80601f0160208091040260200160405190810160405280929190818152602001828054610d7490611a1f565b8015610dc15780601f10610d9657610100808354040283529160200191610dc1565b820191906000526020600020905b815481529060010190602001808311610da457829003601f168201915b5050505050905087565b60008060008381526020019081526020016000206040518060e0016040529081600082015481526020016001820160009054906101000a900473ffffffffffffffffffffffffffffffffffffffff1673ffffffffffffffffffffffffffffffffffffffff1673ffffffffffffffffffffffffffffffffffffffff168152602001600282015481526020016003820160009054906101000a900460ff161515151581526020016003820160019054906101000a900460ff16151515158152602001600482018054610e9a90611a1f565b80601f0160208091040260200160405190810160405280929190818152602001828054610ec690611a1f565b8015610f135780601f10610ee857610100808354040283529160200191610f13565b820191906000526020600020905b815481529060010190602001808311610ef657829003601f168201915b50505050508152602001600582018054610f2c90611a1f565b80601f0160208091040260200160405190810160405280929190818152602001828054610f5890611a1f565b8015610fa55780601f10610f7a57610100808354040283529160200191610fa5565b820191906000526020600020905b815481529060010190602001808311610f8857829003601f168201915b5050505050815250509050600015158160600151151514610ffb576040517f08c379a0000000000000000000000000000000000000000000000000000000008152600401610ff290611ef9565b60405180910390fd5b8060400151600260009054906101000a900473ffffffffffffffffffffffffffffffffffffffff1673ffffffffffffffffffffffffffffffffffffffff166370a08231336040518263ffffffff1660e01b815260040161105b9190611f8b565b602060405180830381865afa158015611078573d6000803e3d6000fd5b505050506040513d601f19601f8201168201806040525081019061109c9190611fbb565b10156110dd576040517f08c379a00000000000000000000000000000000000000000000000000000000081526004016110d490612034565b60405180910390fd5b600260009054906101000a900473ffffffffffffffffffffffffffffffffffffffff1673ffffffffffffffffffffffffffffffffffffffff166323b872dd33836020015184604001516040518463ffffffff1660e01b815260040161114493929190612075565b6020604051808303816000875af1158015611163573d6000803e3d6000fd5b505050506040513d601f19601f8201168201806040525081019061118791906120d8565b506001816060019015159081151581525050806000808481526020019081526020016000206000820151816000015560208201518160010160006101000a81548173ffffffffffffffffffffffffffffffffffffffff021916908373ffffffffffffffffffffffffffffffffffffffff1602179055506040820151816002015560608201518160030160006101000a81548160ff02191690831515021790555060808201518160030160016101000a81548160ff02191690831515021790555060a082015181600401908161125c9190611d38565b5060c08201518160050190816112729190611d38565b509050507fa574c741071bb18f51fa88c17aeefec514bebf670ca22a3736fba6504ecbb763823383604001516040516112ad93929190611e0a565b60405180910390a15050565b6040518060e0016040528060008152602001600073ffffffffffffffffffffffffffffffffffffffff1681526020016000815260200160001515815260200160001515815260200160608152602001606081525090565b6000604051905090565b600080fd5b600080fd5b6000819050919050565b61133781611324565b811461134257600080fd5b50565b6000813590506113548161132e565b92915050565b6000602082840312156113705761136f61131a565b5b600061137e84828501611345565b91505092915050565b61139081611324565b82525050565b600073ffffffffffffffffffffffffffffffffffffffff82169050919050565b60006113c182611396565b9050919050565b6113d1816113b6565b82525050565b60008115159050919050565b6113ec816113d7565b82525050565b600081519050919050565b600082825260208201905092915050565b60005b8381101561142c578082015181840152602081019050611411565b60008484015250505050565b6000601f19601f8301169050919050565b6000611454826113f2565b61145e81856113fd565b935061146e81856020860161140e565b61147781611438565b840191505092915050565b600060e082019050611497600083018a611387565b6114a460208301896113c8565b6114b16040830188611387565b6114be60608301876113e3565b6114cb60808301866113e3565b81810360a08301526114dd8185611449565b905081810360c08301526114f18184611449565b905098975050505050505050565b600081519050919050565b600082825260208201905092915050565b6000819050602082019050919050565b61153481611324565b82525050565b600061154582611396565b9050919050565b6115558161153a565b82525050565b611564816113d7565b82525050565b600082825260208201905092915050565b6000611586826113f2565b611590818561156a565b93506115a081856020860161140e565b6115a981611438565b840191505092915050565b600060e0830160008301516115cc600086018261152b565b5060208301516115df602086018261154c565b5060408301516115f2604086018261152b565b506060830151611605606086018261155b565b506080830151611618608086018261155b565b5060a083015184820360a0860152611630828261157b565b91505060c083015184820360c086015261164a828261157b565b9150508091505092915050565b600061166383836115b4565b905092915050565b6000602082019050919050565b6000611683826114ff565b61168d818561150a565b93508360208202850161169f8561151b565b8060005b858110156116db57848403895281516116bc8582611657565b94506116c78361166b565b925060208a019950506001810190506116a3565b50829750879550505050505092915050565b600060208201905081810360008301526117078184611678565b905092915050565b6000819050919050565b600061173461172f61172a84611396565b61170f565b611396565b9050919050565b600061174682611719565b9050919050565b60006117588261173b565b9050919050565b6117688161174d565b82525050565b6000602082019050611783600083018461175f565b92915050565b600080fd5b600080fd5b7f4e487b7100000000000000000000000000000000000000000000000000000000600052604160045260246000fd5b6117cb82611438565b810181811067ffffffffffffffff821117156117ea576117e9611793565b5b80604052505050565b60006117fd611310565b905061180982826117c2565b919050565b600067ffffffffffffffff82111561182957611828611793565b5b61183282611438565b9050602081019050919050565b82818337600083830152505050565b600061186161185c8461180e565b6117f3565b90508281526020810184848401111561187d5761187c61178e565b5b61188884828561183f565b509392505050565b600082601f8301126118a5576118a4611789565b5b81356118b584826020860161184e565b91505092915050565b6000806000606084860312156118d7576118d661131a565b5b600084013567ffffffffffffffff8111156118f5576118f461131f565b5b61190186828701611890565b935050602084013567ffffffffffffffff8111156119225761192161131f565b5b61192e86828701611890565b925050604061193f86828701611345565b9150509250925092565b600060208201905061195e6000830184611387565b92915050565b61196d8161153a565b82525050565b600060e082019050611988600083018a611387565b6119956020830189611964565b6119a26040830188611387565b6119af60608301876113e3565b6119bc60808301866113e3565b81810360a08301526119ce8185611449565b905081810360c08301526119e28184611449565b905098975050505050505050565b7f4e487b7100000000000000000000000000000000000000000000000000000000600052602260045260246000fd5b60006002820490506001821680611a3757607f821691505b602082108103611a4a57611a496119f0565b5b50919050565b7f4e487b7100000000000000000000000000000000000000000000000000000000600052601160045260246000fd5b6000611a8a82611324565b9150611a9583611324565b9250828203905081811115611aad57611aac611a50565b5b92915050565b7f4e487b7100000000000000000000000000000000000000000000000000000000600052603260045260246000fd5b6000611aed82611324565b91507fffffffffffffffffffffffffffffffffffffffffffffffffffffffffffffffff8203611b1f57611b1e611a50565b5b600182019050919050565b7f5072696365206d7573742062652067726561746572207468616e20302e000000600082015250565b6000611b60601d836113fd565b9150611b6b82611b2a565b602082019050919050565b60006020820190508181036000830152611b8f81611b53565b9050919050565b60008190508160005260206000209050919050565b60006020601f8301049050919050565b600082821b905092915050565b600060088302611bf87fffffffffffffffffffffffffffffffffffffffffffffffffffffffffffffffff82611bbb565b611c028683611bbb565b95508019841693508086168417925050509392505050565b6000611c35611c30611c2b84611324565b61170f565b611324565b9050919050565b6000819050919050565b611c4f83611c1a565b611c63611c5b82611c3c565b848454611bc8565b825550505050565b600090565b611c78611c6b565b611c83818484611c46565b505050565b5b81811015611ca757611c9c600082611c70565b600181019050611c89565b5050565b601f821115611cec57611cbd81611b96565b611cc684611bab565b81016020851015611cd5578190505b611ce9611ce185611bab565b830182611c88565b50505b505050565b600082821c905092915050565b6000611d0f60001984600802611cf1565b1980831691505092915050565b6000611d288383611cfe565b9150826002028217905092915050565b611d41826113f2565b67ffffffffffffffff811115611d5a57611d59611793565b5b611d648254611a1f565b611d6f828285611cab565b600060209050601f831160018114611da25760008415611d90578287015190505b611d9a8582611d1c565b865550611e02565b601f198416611db086611b96565b60005b82811015611dd857848901518255600182019150602085019450602081019050611db3565b86831015611df55784890151611df1601f891682611cfe565b8355505b6001600288020188555050505b505050505050565b6000606082019050611e1f6000830186611387565b611e2c6020830185611964565b611e396040830184611387565b949350505050565b7f4f6e6c792073656c6c65722063616e2063616e63656c207468652073616c652e600082015250565b6000611e776020836113fd565b9150611e8282611e41565b602082019050919050565b60006020820190508181036000830152611ea681611e6a565b9050919050565b7f4974656d20697320616c726561647920736f6c642e0000000000000000000000600082015250565b6000611ee36015836113fd565b9150611eee82611ead565b602082019050919050565b60006020820190508181036000830152611f1281611ed6565b9050919050565b6000819050919050565b6000611f3e611f39611f3484611f19565b61170f565b611324565b9050919050565b611f4e81611f23565b82525050565b6000606082019050611f696000830186611387565b611f766020830185611964565b611f836040830184611f45565b949350505050565b6000602082019050611fa060008301846113c8565b92915050565b600081519050611fb58161132e565b92915050565b600060208284031215611fd157611fd061131a565b5b6000611fdf84828501611fa6565b91505092915050565b7f496e73756666696369656e742062616c616e63652e0000000000000000000000600082015250565b600061201e6015836113fd565b915061202982611fe8565b602082019050919050565b6000602082019050818103600083015261204d81612011565b9050919050565b600061205f8261173b565b9050919050565b61206f81612054565b82525050565b600060608201905061208a60008301866113c8565b6120976020830185612066565b6120a46040830184611387565b949350505050565b6120b5816113d7565b81146120c057600080fd5b50565b6000815190506120d2816120ac565b92915050565b6000602082840312156120ee576120ed61131a565b5b60006120fc848285016120c3565b9150509291505056fea2646970667358221220ea07672b9ca6089292ce8b514d59195915f6404b0492225e36dc942c47a7689a64736f6c63430008110033",
  "immutableReferences": {},
  "source": "pragma solidity ^0.8.0;\r\n\r\nimport \"@openzeppelin/contracts/token/ERC20/ERC20.sol\";\r\nimport \"@openzeppelin/contracts/access/Ownable.sol\";\r\n\r\n/**\r\n * Deployed on Goreli testnet\r\n * ERC20 - 0x496783067A1E17986eaA548E8c80985B891132a1\r\n * MarketplaceToken - 0x54cfCDDD7F0Ca46440F82026a1dBE98370Af847C, 0xD3096423Fb7Ee7FF6690974f0f5FE63Dd302B34c\r\n * Marketplace - 0x4B3Da4EaD612618404DB06F7E946E9dBB6c33100\r\n\r\n * Account - 0x68028E1D7523d18683c508f0a3eB8B0d847E8Ea1\r\n*/\r\n\r\n\r\ncontract Marketplace {\r\n    struct Item {\r\n        uint256 id;\r\n        address payable seller;\r\n        uint256 price;\r\n        bool sold;\r\n        bool canceled;\r\n        string title;\r\n        string description;\r\n    }\r\n\r\n    mapping(uint256 => Item) public items;\r\n    uint256 public itemCount;\r\n    ERC20 public tokenContract;\r\n\r\n    event ItemCreated(uint256 id, address payable seller, uint256 price);\r\n\r\n    event ItemSold(uint256 id, address payable buyer, uint256 price);\r\n\r\n    constructor(address _tokenContract) {\r\n        tokenContract = ERC20(_tokenContract);\r\n    }\r\n\r\n    function createItem(string memory _title, string memory _description, uint256 _price) public {\r\n        require(_price > 0, \"Price must be greater than 0.\");\r\n        itemCount++;\r\n        items[itemCount] = Item(itemCount, payable(msg.sender), _price, false, false, _title, _description);\r\n        emit ItemCreated(itemCount, payable(msg.sender), _price);\r\n    }\r\n\r\n\r\n    // before transfering ownership check is item is already sold or not and if account have enough balance\r\n    function buyItem(uint256 _id) public {\r\n        Item memory item = items[_id];\r\n        require(item.sold == false, \"Item is already sold.\");\r\n        require(\r\n            tokenContract.balanceOf(msg.sender) >= item.price,\r\n            \"Insufficient balance.\"\r\n        );\r\n        tokenContract.transferFrom(msg.sender, item.seller, item.price);\r\n        item.sold = true;\r\n        items[_id] = item;\r\n        emit ItemSold(_id, payable(msg.sender), item.price);\r\n    }\r\n\r\n    function getItem(uint256 _id) public view returns (uint256, address, uint256, bool, bool, string memory, string memory) {\r\n        Item memory item = items[_id];\r\n        return (item.id, item.seller, item.price, item.sold, item.canceled, item.title, item.description);\r\n    }\r\n\r\n    //  fetch the list of all items\r\n    function getAllItems() public view returns (Item[] memory) {\r\n        Item[] memory allItems = new Item[](itemCount);\r\n        for (uint256 i = 1; i <= itemCount; i++) {\r\n            allItems[i - 1] = items[i];\r\n        }\r\n        return allItems;\r\n    }\r\n\r\n    //  only owner/creator of the item can trigger this\r\n    //  trigger ItemSold with 0 price\r\n    function cancelSale(uint256 _id) public {\r\n        Item memory item = items[_id];\r\n        require(msg.sender == item.seller, \"Only seller can cancel the sale.\");\r\n        require(item.sold == false, \"Item is already sold.\");\r\n        item.sold = true;\r\n        item.canceled = true;\r\n        items[_id] = item;\r\n        emit ItemSold(_id, payable(address(0)), 0);\r\n    }\r\n}\r\n\r\ncontract MarketplaceToken is ERC20, Ownable {\r\n    constructor() ERC20(\"Marketplace Token\", \"MPT\") {}\r\n\r\n    function mint(address _to, uint256 _amount) public onlyOwner {\r\n        _mint(_to, _amount);\r\n    }\r\n\r\n    function burn(address _from, uint256 _amount) public onlyOwner {\r\n        _burn(_from, _amount);\r\n    }\r\n}\r\n",
  "sourcePath": "/Users/sahilsingh/Desktop/projects/marketplace-smartcontract/contracts/dapp.sol",
  "compiler": {
    "name": "solc",
    "version": "0.8.17+commit.8df45f5f.Emscripten.clang"
  },
  "schemaVersion": "3.4.11",
  "updatedAt": "2023-04-21T04:51:27.534Z",
  "networkType": "ethereum",
  "devdoc": {
    "kind": "dev",
    "methods": {},
    "version": 1
  },
  "userdoc": {
    "kind": "user",
    "methods": {},
    "notice": "Deployed on Goreli testnet ERC20 - 0x496783067A1E17986eaA548E8c80985B891132a1 MarketplaceToken - 0x54cfCDDD7F0Ca46440F82026a1dBE98370Af847C, 0xD3096423Fb7Ee7FF6690974f0f5FE63Dd302B34c Marketplace - 0x4B3Da4EaD612618404DB06F7E946E9dBB6c33100 Account - 0x68028E1D7523d18683c508f0a3eB8B0d847E8Ea1",
    "version": 1
  }
}